:020000040010EA
:100000000080002065011000C9F91100CBF9110032
:10001000CDF91100CFF91100D1F911000000000055
:10002000000000000000000000000000D3F91100F3
:10003000D5F9110000000000D7F91100D9F911001D
:10004000DBF91100DBF91100DBF91100DBF911001C
:10005000DBF91100DBF91100DBF91100DBF911000C
:10006000DBF91100F9171000DBF91100DBF91100C1
:10007000DBF91100DBF91100DBF91100DBF91100EC
:10008000DBF91100DBF91100DBF91100DBF91100DC
:10009000DBF91100DBF91100DBF91100DBF91100CC
:1000A000DBF91100DBF91100DBF91100DBF91100BC
:1000B000DBF91100DBF91100DBF91100DBF91100AC
:1000C000DBF91100DBF91100DBF91100DBF911009C
:1000D000DBF91100DBF91100DBF91100DBF911008C
:1000E000DBF91100DBF91100DBF91100DBF911007C
:1000F00019211000192110001921100019211000D8
:100100001921100019211000B1EA11001921100065
:1001100019211000DBF91100DBF91100DBF91100E6
:10012000DBF91100DBF91100DBF91100DBF911003B
:10013000DBF91100DBF91100DBF91100DBF911002B
:10014000DBF91100DBF91100DBF91100DBF911001B
:10015000DBF91100DBF91100192110001921100041
:100160001921100068466FF38200854601488047D8
:100170000148004781FB1100DDF9110080B483B014
:1001800000AF7860396005497B683A6841F8232000
:1001900000BF0C37BD4680BC704700BF0007004061
:1001A00080B582B000AF7860084A084B1B6923F025
:1001B0000F0343F009031361054A7B6813601FF0C6
:1001C000F1FC00BF0837BD4680BD00BF0005004000
:1001D0000001004080B400AF094B4FF0FF32C3F87C
:1001E0008020074B4FF0FF32C3F88420044B4FF0C0
:1001F000FF32C3F8882000BFBD4680BC704700BFF7
:1002000000E100E080B400AF094B4FF0FF32C3F8CB
:100210008021074B4FF0FF32C3F88421044B4FF08D
:10022000FF32C3F8882100BFBD4680BC704700BFC5
:1002300000E100E080B483B000AF7860044A7B68DE
:1002400003F03F03136600BF0C37BD4680BC704708
:100250000012004080B483B000AF78603960054977
:100260007B6810333A6841F8232000BF0C37BD4645
:1002700080BC70470012004080B584B000AF0123FD
:10028000FB60FB6883F31088FFF7A4FFFFF7BAFF5A
:100290003B4B43F23E121A6300BF3A4B1B6B002BE1
:1002A000FBD0394B00229A70384B03221A70384A1F
:1002B000384B134401221A60354A374B134400224D
:1002C0001A6000BF324A354B13441B68012BF9D129
:1002D000334A344B134400221A60314A324B1344E0
:1002E00001221A60314B03F1007303F51B630122F5
:1002F0001A602F4B01221A6000201FF0D5F92D4AF9
:100300002C4BD3F8AC3023F4883343F48053C2F839
:10031000AC30294B0622DA7000BF284A284B134420
:100320001B68012BF9D10220FFF73AFF254B07226A
:100330005A60244B40F20172DA60234B234A1A6060
:100340000720FFF777FF67210020FFF783FF0221D7
:100350000620FFF713FF01F055FA00F0B3FD00F09F
:1003600037F800237B607B6883F310880023BB6031
:10037000BB6883F3138800BF1037BD4680BD00BF44
:100380000007004000E8004204130040081300404A
:10039000141300408C4F02029C4F0202CC4F020209
:1003A000181300400850020218500202500000408A
:1003B000800A004200000140BC000140E40001400E
:1003C000C81B1F0200010040001400408100010012
:1003D00080B500AF0C220021074820F02BFB074915
:1003E00004201EF0ABF900F0E9F900F069FC00F020
:1003F00017F900BF80BD00BFD0180020800C12008C
:1004000080B483B000AF78600B4A7B6852F8233029
:10041000DBB203F03C03002B09D10749064A7B6895
:1004200052F8233043F001027B6841F8232000BFDB
:100430000C37BD4680BC70470007004080B483B0D5
:1004400000AF78600B4A7B6852F82330DBB203F0D0
:100450003C03002B09D10749064A7B6852F8233038
:1004600023F001027B6841F8232000BF0C37BD4612
:1004700080BC70470007004080B483B000AF786054
:100480000B4A7B6852F82330DBB203F03C03002BAD
:1004900009D10749064A7B6852F8233083F00102EC
:1004A0007B6841F8232000BF0C37BD4680BC7047F5
:1004B0000007004080B586B000AFB96011461A460B
:1004C0000346FB810B46BB811346FB8014220421AB
:1004D00040F601701EF022FA2C4BB3F8FA310133CA
:1004E0009AB22A4BA3F8FA21284BB3F8FA311E2B03
:1004F00007D1264B0022A3F8FA21244B012283F8CE
:10050000FC20234B1B68642202FB03F3A3F5E123C9
:10051000204AA2FB03239B0AFB82FB8A642B28BF91
:100520006423FB821C4B5A68FB8A13441A4A5360AB
:10053000194B1B8901339AB2174B1A81164B1B8931
:10054000102B1DD1144B5B681B09134A1278934280
:1005500002D0114B01229A72104B5B79052B09D105
:100560000F4B5B78002B05D00B4B5B681B09DAB295
:10057000094B1A70084B00221A81074B00225A605F
:10058000002318461837BD4680BD00BFE418002080
:10059000001200407DE978D5D0180020F01A002024
:1005A000E018002080B584B000AFB96011461A464B
:1005B0000346FB810B46BB811346FB800E4B5B79E8
:1005C000052B03D10620FFF71BFF0AE00A4B5B79DE
:1005D000032B03D10620FFF74FFF02E00620FFF7B1
:1005E0002DFF1422042140F602701EF097F900231B
:1005F00018461037BD4680BDF01A002080B485B083
:1006000000AFB96011461A460346FB810B46BB8119
:100610001346FB80002318461437BD4680BC704744
:1006200080B400AF034B00221A7000BFBD4680BCEF
:10063000704700BFE018002080B582B000AF1C23D7
:100640000422082140F61B501DF0B6FF78607B683D
:100650001B221A707B6800225A707B6824225A8001
:100660007B6804229A807B680022DA807B680833EA
:100670003B603B6801221A703B6801225A703B685C
:100680000022DA803B6800225A723B6804221A7208
:100690003B6801229A723B6842F2AD729A80786898
:1006A0001DF0A4FF00BF0837BD4680BD80B584B0F3
:1006B00000AF0346FB71242002F008F9F860FB68E4
:1006C000FA791146184602F013F903461946042335
:1006D00004224FF410501DF06FFFB860BB68FA7928
:1006E0001A70BB6801225A70BB6800229A70BB68FE
:1006F0000022DA70B8681DF079FF00BF1037BD46E0
:1007000080BD80B584B000AF0346FB710B46BB7162
:1007100013467B71242002F0D9F8F860FB68FA795F
:100720001146184602F0E4F8034619460223042253
:1007300042F202401DF040FFB860BB687A791A703F
:10074000BB68BA795A70B8681DF050FF00BF103707
:10075000BD4680BD80B485B000AFB96011461A4671
:100760000346FB810B46BB811346FB80BB685A786E
:10077000034B1A70002318461437BD4680BC7047DF
:10078000E018002080B485B000AFB96011461A4669
:100790000346FB810B46BB811346FB80BB685B783D
:1007A000002B02D1044B01225A7000231846143743
:1007B000BD4680BC704700BFE018002080B500AF88
:1007C0004FF4FF720021084820F034F9064B012253
:1007D000A3F8FA20044B0022A3F8F621024B0122D1
:1007E00083F8FD2000BF80BDE418002090B5B3B0B1
:1007F00000AFC623042206214FF430601DF0DCFE5A
:10080000C7F8C000274B07F1B0040FCB84E80F00F6
:10081000254A3B461146B022184620F000F9D7F889
:10082000C03000221A80D7F8C03004225A80D7F88E
:10083000C03040221A71D7F8C03008225A71D7F858
:10084000C030063307F1B0011022184620F0E7F857
:10085000002387F8C73019E097F8C730162202FB4B
:1008600003F31033D7F8C0201344981D97F8C7300E
:100870003A46162101FB03F313441622194620F0D1
:10088000CEF897F8C730013387F8C73097F8C730EC
:10089000072BE1D9D7F8C0001DF0A8FE00BFCC3768
:1008A000BD4690BD300D1200400D120080B584B0E1
:1008B00000AFB96011461A460346FB810B46BB8167
:1008C0001346FB80BB681A88094B1A8000F0B8FBFE
:1008D000034683F00103DBB2002B04D0054B022258
:1008E0005A7100F0CDFB002318461037BD4680BD7D
:1008F000E4180020F01A002080B588B000AFB9607D
:1009000011461A460346FB810B46BB811346FB800A
:100910000023FB770023BB770023BB61BB681A88E9
:100920003B4B1B889A4208D9BB681A88384B1B88F6
:10093000D31A9BB2013BBB8301E00123BB77BB7F92
:10094000002B36D1BB8B013B062B2FD801A252F8CE
:1009500023F000BF8F09100099091000A3091000AF
:10096000AD091000710910007B0910008509100005
:10097000F823FB77274BBB611BE00223FB77264B59
:10098000BB6116E00823FB77244BBB6111E0F82321
:10099000FB77234BBB610CE00223FB77214BBB6150
:1009A00007E00823FB77204BBB6102E00223BB7703
:1009B00000BF1E4B9B781B021BB243F007031BB208
:1009C00099B2FB7F9BB206339BB2042240F61440DF
:1009D0001DF0F2FD7861BB69002B06D07B69053301
:1009E000FA7FB969184620F01AF8BB681A887B6943
:1009F0001A80FB7F9AB27B695A807B69BA7F1A7131
:100A000078691DF0F3FD002318462037BD4680BDF0
:100A1000E4180020E2190020DA1A0020F00D12007C
:100A2000E6180020DE190020FC0D1200F01A00204C
:100A300080B58AB000AFB96011461A460346FB8103
:100A40000B46BB811346FB80604B9B781B021BB29D
:100A500043F007031BB299B20423042240F6164068
:100A60001DF0AAFD7861002387F827300023BB849E
:100A700000233B620023FB61BB685B88002B02D034
:100A8000072387F82730BB681A88514B1B889A4286
:100A900008D9BB681A884E4B1B88D31A9BB2013BFE
:100AA000BB8402E0012387F8273097F82730002B1A
:100AB00018D1BB8C052B04D0062B09D0022B0AD0F1
:100AC0000CE0444B3B62424B012283F8F82109E0E1
:100AD000414B3B6206E0414B3B6203E0032387F856
:100AE000273000BF3B6A002B07D0BB68991DBB684D
:100AF0009B881A46386A1FF092FFBB681A887B6988
:100B00001A807B6997F827209A7078691DF06EFD2E
:100B1000BB8C052B54D10023BB6118E0304B1B6804
:100B20001B791A462E4B1B6805331946104600F0F8
:100B30006DFF0346012B08D0294B1B68184601F0B6
:100B400017F80246264B1A6001E00123BB61244BD3
:100B50001B68002B02D0BB69002BDFD0BB69002BC8
:100B60000AD1BB689B88396A184600F04FFF0346DC
:100B7000012B01D0002324E0194B1B68002B15D05A
:100B8000174B1B68FB6102E0FB691B68FB61FB699B
:100B90001B68002BF8D1BB689B88DBB2396A18460A
:100BA00000F0C2FF0246FB691A6009E0BB689B883F
:100BB000DBB2396A184600F0B7FF0246084B1A60EC
:100BC000002318462837BD4680BD00BFF01A00201C
:100BD000E4180020E2190020DA1A0020DE190020B3
:100BE0009800002080B584B000AF3A601A460346F2
:100BF000FB710B46BB7113467B71BB799AB21B4BE1
:100C00001B8813449BB20133FB81FB791B021BB28F
:100C100043F007031BB299B27B799BB208339BB2B6
:100C200004224FF441601DF0C7FCB860BB68FA892C
:100C30009A807B799AB2BB68DA80BB6812221A70FC
:100C4000BB6800225A80BB6808337A793968184635
:100C50001FF0E5FE054B002283F8FD20B8681DF06B
:100C6000C5FC00BF1037BD4680BD00BFE4180020A2
:100C700080B485B000AFB96011461A460346FB81C7
:100C80000B46BB811346FB80BB681B78122B0FD130
:100C9000BB685B78002B03D1084B012283F8FD2051
:100CA000BB685B78462B03D1044B012283F8FD20FF
:100CB000002318461437BD4680BC7047E418002056
:100CC00080B400AF034B00221A7000BFBD4680BC49
:100CD000704700BFE41A002080B588B000AFB9604B
:100CE00011461A460346FB810B46BB811346FB8027
:100CF0000023FB770023BB61BB681B78082B42D81D
:100D000001A252F823F000BF2D0D1000370D100086
:100D1000550D10005F0D1000690D1000730D1000CF
:100D2000410D10007D0D10004B0D10001023FB77BE
:100D3000274BBB6128E00A23FB77264BBB6123E0EE
:100D40000823FB77244BBB611EE00723FB77234B73
:100D5000BB6119E00A23FB77214BBB6114E005233B
:100D6000FB77204BBB610FE00523FB771E4BBB617C
:100D70000AE00523FB771D4BBB6105E00623FB77EB
:100D80001B4BBB6100E000BFFB7F9BB202339BB2F9
:100D9000BA89F98841F203401DF00EFC7861BB6806
:100DA0001A787B691A707B69FA7F5A70FB7F002B77
:100DB00006D07B690233FA7FB96918461FF02FFE0F
:100DC00078691DF013FC002318462037BD4680BD0E
:100DD000080E1200180E1200240E1200300E12001F
:100DE000380E1200440E12004C0E1200540E120067
:100DF0005C0E120080B582B000AF0A2304220821E5
:100E000040F61B501DF0D8FB78607B681B221A70DF
:100E10007B6800225A707B6814225A807B68042207
:100E20009A807B680022DA807B6808333B603B68ED
:100E300040F2FF121A8078681DF0D8FB00BF083717
:100E4000BD4680BD80B483B000AF0346FB7197F907
:100E50000730002B0BDB084997F907305B09FA795B
:100E600002F01F02012000FA02F241F8232000BF25
:100E70000C37BD4680BC704700E100E080B485B00F
:100E800000AF78607B6800221A707B681B78012BAA
:100E900010D10B4A07F1080392E8030018600433ED
:100EA00019807B6801331A4607F10803186810603F
:100EB0009B88938000BF1437BD4680BC704700BF3D
:100EC0007C0E120080B584B000AF584A3B1D92E8FA
:100ED000030018600433198001201FF05DFE142008
:100EE0001EF022FB00201DF0F3FD002001F084F82D
:100EF0002F20FFF7A7FF2E20FFF7A4FF3020FFF7DA
:100F0000A1FF3120FFF79EFF3420FFF79BFF322027
:100F1000FFF798FF3320FFF795FF2C20FFF792FF94
:100F20002D20FFF78FFF1222002141481FF082FD84
:100F30003F4B00225A713F4B1A463B1D1868106008
:100F40009B8893803C4B01221A7030201FF048FD93
:100F500003461A46394B1A60384B1B6803221A7035
:100F6000364B1B680A225A70344B1B680433314AD3
:100F70001168196092889A80304B1B682E4A12784B
:100F80009A762E4B1B6843F698225A802B4B1B688F
:100F90000A331022002118461FF04CFD274B1B6816
:100FA0000022DA76254B1B6800229A83234B1B68AC
:100FB0000022DA83214B1B684FF40072DA841F4B46
:100FC0001B684FF400721A851C4B1B6880221A8420
:100FD0001A4B1B68FB225A84184B1B6840F64802C8
:100FE0009A84164B1B68002283F82E20134B1B6833
:100FF000002283F82F20114B1B68002283F82A203F
:101000000E4B1B6800229A8501230422082140F61A
:1010100002501DF0D1FAF860FB6801221A70F868DE
:101020001DF0E4FA00BF1037BD4680BD840E1200EB
:10103000F01A0020E81A0020EE1A00209C00002080
:1010400080B500AF0C4BDB781A460C4B53F82230BE
:10105000002B0ED0084BDB781A46084B53F8223091
:101060009847054BDB780133DAB2034BDA70012382
:1010700000E00023184680BDF01A0020640E120024
:1010800080B58EB000AF07F108031F22002118467B
:101090001FF0D0FC04233B72FF237B726223BB72E0
:1010A0000323FB7203233B73514A3B4692E8030040
:1010B0001860043319704F4B5B79022B40F0948019
:1010C00052230422082140F60D501DF075FA786372
:1010D0007B6B00225A707B6B07221A727B6B40225B
:1010E0009A807B6B4022DA807B6B0D221A707B6BBF
:1010F00000225A807B6B01225A727B6B00229A720B
:101100007B6B052283F82B207B6B03F12C007B6B20
:1011100093F82B301A4607F1080319461FF07FFC9D
:101120007B6B0022DA721A2387F8333097F833305A
:10113000002B53D0162387F8323097F83230002B2B
:1011400034D097F8322097F83330FA62BB62FA6AEB
:10115000BB6A934228BF134687F832307B6BDB7A39
:10116000194697F832300133DAB27B6B0B441A73AD
:101170007B6BDB7A01337A6B134409221A737B6B26
:10118000DB7A023308337A6B1344043397F8322046
:10119000194918461FF043FC7B6BDA7A97F8323016
:1011A0001344DBB20233DAB27B6BDA727B6BDB7A2D
:1011B000C3F11A03042B11DD7B6BDB7A08337A6BE6
:1011C000134404331A463B46186810601B791371A8
:1011D0007B6BDB7A0533DAB27B6BDA72786B1DF0EE
:1011E00005FA044B03225A7100BF3837BD4680BD53
:1011F000A40E1200F01A00208C0E120080B584B0EC
:1012000000AFB96011461A460346FB810B46BB810D
:101210001346FB800A4B5B79012B0CD1FFF710FFC3
:10122000034683F00103DBB2002B04D0044B0222FF
:101230005A71FFF725FF002318461037BD4680BDC1
:10124000F01A002080B586B000AFB96011461A468A
:101250000346FB810B46BB811346FB80BB681B78B2
:10126000012B02D0032B2DD040E0BB685B78002B14
:1012700039D130230422082140F604501DF09CF996
:1012800078611D4B1B683022194678691FF0C7FB37
:10129000194B1B6818461FF0ABFB78691DF0A6F9C7
:1012A0001422042140F601701DF038FB02220421B3
:1012B00000201DF033FB1422042140F602701DF0C3
:1012C0002DFB10E00D4B01225A71FFF7B9FE0346CA
:1012D00083F00103DBB2002B07D0084B02225A71C6
:1012E000FFF7CEFE01E000BF00E000BF002318467C
:1012F0001837BD4680BD00BF9C000020F01A0020BA
:1013000080B586B000AFB96011461A460346FB812E
:101310000B46BB811346FB801623FB75FB7D9BB2FE
:101320000A339BB2BA89F98840F60B601DF044F984
:101330003861BB681B78012B13D0022B1BD0002B0C
:1013400000D028E03B6900221A703B690433FA7D23
:10135000154918461FF063FBFB7D9AB23B695A8022
:1013600019E03B6900225A803B6901221A703B69EF
:1013700000225A800FE03B6908225A803B690A220A
:101380009A803B690022DA803B69C8221A813B6956
:1013900002221A7000BF38691DF028F90023184690
:1013A0001837BD4680BD00BF8C0E120080B586B0D8
:1013B00000AFB96011461A460346FB810B46BB815C
:1013C0001346FB80FB881B0A9BB2DAB2284B9A704B
:1013D000274B9B78FF2B43D0254B05225A71BB68C6
:1013E0001B88DAB2224B9A70BB685A88204BDA808D
:1013F000BB689A881E4B5A81BB68DA881C4B1A81DD
:101400001B4B9B781B021BB243F009031BB299B222
:101410002C23042240F602601DF0CEF878617B692F
:10142000002283F828207B69002283F8292078692C
:101430001DF0DCF80E4B9B78FB21184600F0E6F817
:101440000B4B9B78184600F00BF90221022000F0AC
:1014500027F9074B9B781946012000F08BF801E033
:10146000FFF70EFE002318461837BD4680BD00BFAB
:10147000F01A002080B485B000AFB96011461A465A
:101480000346FB810B46BB811346FB8000231846B5
:101490001437BD4680BC704780B584B000AFB960DA
:1014A00011461A460346FB810B46BB811346FB805F
:1014B000074B02225A71064B9B781946002000F018
:1014C00059F8FFF7DDFD002318461037BD4680BDF3
:1014D000F01A002080B485B000AFB96011461A46FA
:1014E0000346FB810B46BB811346FB80BB681A8811
:1014F000074B9A81BB685A88054BDA81BB689A888A
:10150000034B1A82002318461437BD4680BC70472F
:10151000F01A002080B586B000AFB96011461A46B7
:101520000346FB810B46BB811346FB80104B9B7827
:101530001B021BB243F009031BB299B2062304221B
:101540004FF461601DF038F878617B6901221A70F0
:101550007B694FF6FF729A807B694FF6FF725A8063
:1015600078691DF043F8002318461837BD4680BD42
:10157000F01A002080B582B000AF03460A46FB7126
:101580001346BB71FB79002B07D0094B00221A715F
:10159000BB79184600F012F806E0064B00225A709C
:1015A000054B002283F8F92100BF0837BD4680BDF6
:1015B000F01A0020E0180020E418002080B582B066
:1015C00000AF0346FB710F4B1B791A460E4B53F8C5
:1015D0002230002B10D00B4B1B791A460A4B53F8C4
:1015E0002230FA7910469847064B1B790133DAB25C
:1015F000044B1A71012300E0002318460837BD464A
:1016000080BD00BFF01A0020740E120080B584B0B7
:1016100000AF03460A46FB711346BB80FB791B02F1
:101620001BB243F009031BB299B20623042240F611
:101630002B601CF0C1FFF860FB6814221A70FB6875
:10164000BA885A80BB880E339BB2DB009AB2FB6823
:101650009A80F8681CF0CAFF00BF1037BD4680BDF5
:1016600080B584B000AF0346FB71FB791B021BB24F
:1016700043F007031BB299B20423042240F6014051
:101680001CF09AFFF860FB6801221A70FB680022C8
:101690005A80F8681CF0AAFF00BF1037BD4680BD15
:1016A00080B584B000AF03460A46FB711346BB7198
:1016B0000F4B9B781B021BB243F009031BB299B27C
:1016C0000323042240F62F601CF076FFF860FB68CD
:1016D00017221A70FB68FA799A70FB68BA795A7007
:1016E000F8681CF083FF00BF1037BD4680BD00BF07
:1016F000F01A002080B483B000AF0346FB7197F965
:101700000730002B0BDB084997F907305B09FA79A2
:1017100002F01F02012000FA02F241F8232000BF6C
:101720000C37BD4680BC704700E100E080B483B058
:1017300000AF7860396005497B683A6841F823203A
:1017400000BF0C37BD4680BC704700BF000700409B
:1017500080B483B000AF7860054A7B68383352F8B4
:1017600023309BB218460C37BD4680BC704700BF83
:101770000006004080B483B000AF7860054A7B6803
:1017800038334FF4F85142F8231000BF0C37BD46F0
:1017900080BC70470006004080B483B000AF786022
:1017A0007B68DB0103F1844303F5404300221A60A8
:1017B00000BF0C37BD4680BC7047000080B584B0C8
:1017C00000AFF860B9607A60FB6843F00F03194618
:1017D000B868FFF7ABFFFB6843F03E031946786833
:1017E000FFF7A4FF034A7B68D36600BF1037BD46EE
:1017F00080BD00BF0007004080B400AF00BFBD4601
:1018000080BC704780B582B002AF0020FFF7C4FFF4
:101810000120FFF7C1FF144B144A1A60144B002239
:101820001A60042205214FF45450FFF7C7FF114BF3
:101830001B6802224FF4E13118461EF071F80120B6
:10184000FFF798FF0C4B01930C4B0093F4234FF4DC
:10185000F4720B4901201DF09FFE0920FFF74AFF9B
:1018600000BFBD4680BD00BF081B0020A4000020B3
:10187000041B002000000020E40F0020080C0040A2
:1018800029086A0080B586B000AF78600120FFF7B4
:101890005FFF034603F00203002B08D0584B1B6880
:1018A000002B04D1574B5B6C554A136029E0564B13
:1018B0001B78002B25D1534BD3F8A430FB60504B41
:1018C0001A68FB689A4206D24D4B1B68FA68D31A15
:1018D0009B087B610FE04A4B1A68FB689A4208D963
:1018E000474B1B68FA68D31A03F5F4639B087B61C6
:1018F00001E000237FE07B69B3F5CE7F01D80023B0
:1019000079E0404BD3F8A430FB603D4B1A68FB688C
:101910009A4201D100236EE0394B1A68FB689A4263
:101920001CD2374B1B68FA68D31A9B087B610023D3
:101930003B610EE07A683B691344314A12681278C1
:101940001A702F4B1B6804332D4A13603B69013317
:101950003B613A697B699A42ECD348E0284B1B68AB
:10196000FA68D31A03F5F4639B087B61254B5A6C24
:10197000234B1B68D31A03F5F4639B08FB60002319
:101980003B610EE07A683B6913441D4A1268127885
:101990001A701B4B1B680433194A13603B690133EF
:1019A0003B613A69FB689A42ECD3164B5B6C144A74
:1019B00013607A69FB689A4219D000233B6110E0FA
:1019C000FA683B6913447A6813440D4A1268127826
:1019D0001A700B4B1B680433094A13603B690133CF
:1019E0003B617A69FB68D21A3B699A42E8D8064B98
:1019F00000221A707B6918461837BD4680BD00BFAB
:101A0000041B002000060040A000002080B58CB020
:101A100002AF786039603F4B1B68012B49D13E4BC8
:101A20001B889BB21A467B681344B3F5F47F01D937
:101A300001236BE0394B1A68374B1B889BB29B0024
:101A400013447B6200233B620CE03A683B6A134418
:101A50001B781A467B6A1A607B6A04337B623B6A96
:101A600001333B623A6A7B689A42EED3EFF310830C
:101A70007B617B69FB610123BB61BB6983F31088D8
:101A80002549254B1B889AB27B689BB213449BB2B5
:101A90000B80204B1B68012B06D1FB693B613B6926
:101AA00083F31088002331E0FB69FB60FB6883F35C
:101AB00010887B68B3F5F47F01D9012326E0174B2A
:101AC0001B687B6200233B620CE03A683B6A13446C
:101AD0001B781A467B6A1A607B6A04337B623B6A16
:101AE00001333B623A6A7B689A42EED30B4B1B6828
:101AF0001A460B4B0193009200237A680949002093
:101B00001DF04AFD0020FFF735FE00231846283758
:101B1000BD4680BD00C0004260060040081B00209A
:101B2000040C004017400A0080B584B000AF0346A3
:101B30003960FB71FB79053318461EF051FF0346EF
:101B4000FB60FB68002B01D100230DE0FB6805332F
:101B5000FA79396818461EF062FFFB68FA791A7143
:101B6000FB6800221A60FB6818461037BD4680BD2E
:101B700080B584B000AF78607B68FB607B681B68D1
:101B80007B60F8681EF034FF7B6818461037BD464E
:101B900080BD000080B584B000AFB96011461A4620
:101BA0000346FB810B46BB811346FB8002220421C6
:101BB00000201CF0B3FE044B01221A7000231846CB
:101BC0001037BD4680BD00BFA000002080B400AF2C
:101BD00000231846BD4680BC704780B400AF002388
:101BE0001846BD4680BC704780B400AF002318463D
:101BF000BD4680BC704780B400AF00231846BD4688
:101C000080BC704780B400AF00231846BD4680BC3E
:101C1000704780B400AF00231846BD4680BC7047B3
:101C200080B400AF00231846BD4680BC704780B426
:101C300000AF00231846BD4680BC704780B400AF9B
:101C400000231846BD4680BC704780B400AF002317
:101C50001846BD4680BC704780B400AF00231846CC
:101C6000BD4680BC704780B400AF00231846BD4617
:101C700080BC704780B400AF00231846BD4680BCCE
:101C8000704780B400AF00231846BD4680BC704743
:101C900080B400AF00231846BD4680BC704780B4B6
:101CA00000AF00231846BD4680BC704780B400AF2B
:101CB00000231846BD4680BC704780B400AF0023A7
:101CC0001846BD4680BC704780B400AF002318465C
:101CD000BD4680BC704780B400AF00231846BD46A7
:101CE00080BC704780B400AF00231846BD4680BC5E
:101CF000704780B400AF00231846BD4680BC7047D3
:101D000080B400AF00231846BD4680BC704780B445
:101D100000AF00231846BD4680BC704780B400AFBA
:101D200000231846BD4680BC704780B400AF002336
:101D30001846BD4680BC704780B400AF00231846EB
:101D4000BD4680BC704780B400AF00231846BD4636
:101D500080BC704780B400AF00231846BD4680BCED
:101D6000704780B400AF00231846BD4680BC704762
:101D700080B400AF00231846BD4680BC704780B4D5
:101D800000AF00231846BD4680BC704780B400AF4A
:101D900000231846BD4680BC704780B400AF0023C6
:101DA0001846BD4680BC704780B400AF002318467B
:101DB000BD4680BC7047000080B400AF034B044AAE
:101DC0005A6000BFBD4680BC704700BF00030040A2
:101DD00011E2B10280B5FCB000AFFEF74DFA1CF085
:101DE000A5FE334B1B68002B15D0314B1B681B79AC
:101DF0001A462F4B1B68053319461046FFF706FE9F
:101E00000346012B07D02A4B1B681846FFF7B0FE8C
:101E10000246274B1A60274B5B79052B43D1264B93
:101E20009B7A002B0DD0254B5B78002B09D0224BE1
:101E300000229A72204B1B78002219460020FEF7E0
:101E400060FC1F4B93F8FD30002B2CD03B1D184637
:101E5000FFF718FDC7F8EC01D7F8EC31002B22D0C2
:101E6000D7F8EC31F42B15D9124B98783A1DF4239E
:101E70000121FEF7B7FE0F4B9878D7F8EC31DBB2B3
:101E80000C33D9B23B1D03F1F4020B460121FEF7DE
:101E9000A9FE08E0074B9878D7F8EC31DBB23A1D81
:101EA0000121FEF79FFEFFF787FF20BF97E700BFE6
:101EB00098000020F01A0020D0180020E018002020
:101EC000E418002008B572B61CF002FA012015F0E3
:101ED00095F902F041FC00F0E9F80120044B187379
:101EE00015F004FD034B1B68984762B608BD00BFA0
:101EF000643600200C1B002072B6034B5A89104335
:101F0000588162B6704700BF6436002008B50120D2
:101F1000FFF7F2FFBDE8084002F0B8BB72B6034A13
:101F2000538923EA0000508162B67047643600206E
:101F300008B5074B5B89DB0709D502F0E7FB0320F7
:101F40001CF0FEF9BDE808400120FFF7E7BF08BD1F
:101F500064360020104B10B51B786BB100230F4C7A
:101F60000F4922680968E1FB0023500A40EAC35088
:101F7000C0F30803236010BD0A4A5368034403EB0F
:101F8000002303EBC0035C0AC3F3080353601E2362
:101F90005843001910BD00BF881700208C1700207F
:101FA0008417002064360020054B1B782BB1054BAD
:101FB00040021B68B0FBF3F07047C003024BF9E727
:101FC000881700208417002040420F0008B5024601
:101FD000FFF7EAFF054B18601046FFF7E5FF044BDB
:101FE00003EA8020034B186008BD00BF6436002060
:101FF00000FCFF033C15004038B51A4D10220021AB
:1020000028461EF017FD01232B736B73C823002491
:1020100015482B8100F016F9002015F0EFF802F0BA
:10202000ADFB0AF0FFFD114B21461C70104B204602
:102030001C60104B1C701DF083FA20461DF098FAAE
:1020400020461DF0A1FA00F01DF8204615F04EFCC8
:102050004BF68032084B2C731C60084B1C60084BFD
:102060001A6038BD643600200C1B0020F5250020C6
:10207000041F0020D01E0020901700208C17002085
:102080009417002008B50AF00FFD002004F0C2FBF1
:1020900007F076F8002003F0CFFC0022024B1A6014
:1020A000BDE8084002F0F2BF5015004008B572B616
:1020B0004FF00042104B1A601A68002AFCDB1868C7
:1020C0000E4B0F4A1B680344106818441EF064FD51
:1020D0000C4B186808B11EF05FFD04F0AFFC012046
:1020E00004F098FB07F092F8012003F0A5FC0AF039
:1020F000DBFC62B608BD00BF1C1500402015004087
:102100002415004098170020024B1868B0FA80F0A0
:1021100040097047D41E0020F8B52B4E2B4D0427E4
:102120003468002C4FD0600702D52F60FFF7EEFE19
:10213000E10705D501232B60FFF7FAFE15F0BAFE83
:10214000220603D580232B6015F0B4FE23070CD59F
:102150000823A0072B6048BF02234FF0000044BFB4
:102160002B6024F0020402F039FAE1050DD54FF49A
:102170008073A2072B6048BF02234FF0010044BFC9
:102180002B6024F0020402F029FAA30703D50223EE
:102190002B6002F049FAA00504D54FF400732B60C0
:1021A00015F0E4FB610603D540232B601CF07CFC9A
:1021B000E20603D510232B6005F034FDA306AFD54E
:1021C00020232B60ABE7F8BD101500401815004028
:1021D000044A13689B07FCD500F1804000F580306D
:1021E000007870477015004000F1804000F58030A5
:1021F000017070477047704700207047024A1368AB
:1022000043F00703136070473015004000000000E2
:1022100008B51EF0A9F808A3D3E900231EF00AF9B7
:102220000022074B1DF052FF1EF05EFB1EF0ACFBC0
:1022300040B208BDAFF300807B14AE47E17AD43FD3
:1022400000005B402DE9F843B84BB94A0362B94B33
:10225000B9494362B94B4361062380F82C30B84B2F
:102260008362B84B0360B84B4360B84BC3611368DB
:10227000FF209BB243F0847313600B6823F4F87360
:1022800043F030030B600B6843F480530B600B6822
:1022900043F400430B60FFF79BFF0B68A0F1400481
:1022A00023F00F03012C98BF43F00303012C0646D3
:1022B0000B605AD8A64BA7481B68056803F47C73CB
:1022C000802BA54AA549A64B25F47F0540F0AD819A
:1022D00045F4E2050560056825F4F85545F4706598
:1022E0000560056825F0FF0545F02F0505601068BD
:1022F00020F07F0040F00C001060106820F4FE40D9
:1023000040F448501060106820F4F81040F40020A9
:102310001060106820F07F4010600A6822F47F028D
:1023200042F4E2020A600A6822F4F85242F470624F
:102330000A600A6822F0FF0242F031020A601A685D
:1023400022F07F0242F007021A601A6822F4FE426D
:1023500042F4D0521A601A6822F4F81242F4802231
:102360001A601A6822F07F421A60012C36D80027C2
:10237000DFF8508265227B4988F800707A481EF0A9
:102380004EFB7A497A4D0B684E222B604B68794898
:102390006B600B890A312B811EF041FB0123DFF8B2
:1023A0002892652289F80070734988F800306E48D9
:1023B0001EF035FB71494E220B686E482B604B684E
:1023C0000A316B6031F8023C2B811EF028FB66223B
:1023D0006B4B89F8007088F800701A700023694A06
:1023E0006949012C98BF51F8230003F101039CBFF8
:1023F00010600432282BF4D1644AFF211746644B45
:1024000003F8011B9342FBD16149624DDFF8BC81A7
:10241000DFF8BC91012C00F24B815B4A08EB810391
:10242000D358C9F8003006232B70C020FFF7D0FE28
:102430000028FAD1012C07D8A220FFF7C9FEC0F36B
:10244000031343EA001008700131B942E2D1524946
:1024500052480A68012C02EA000242F4B6720A608D
:102460000A6892B20A604E4A4CF28101136803EA8C
:10247000000343F4C173136013689BB243F0D47339
:1024800013604FF4D872474B1A604FF4B972464B41
:102490001A8094BF41F2816243F2810202331A80B2
:1024A0000022424B012C1A804FF4BD725A8098BF13
:1024B00041F6840203F1020398BF5A8000233C4A8C
:1024C000012C138053809380D1804FF0070111813C
:1024D00053814FF4C472374B4FF4CC711A809CBFB8
:1024E00041F281625A800022334B012C1A804FF452
:1024F000C8725A8094BF41F6840242F68442043383
:102500001A800023012C94BF4AF2812048F68100F2
:102510002A4A012C138053809180294902F1080234
:10252000088013804FF0000254E000BFD12110005A
:1025300070150040E921100074150040F9211000C9
:10254000FD211000F5211000F721100011221000CC
:102550000014004080150040901500408415004094
:10256000941500405C0F120000000140C20F1200E1
:1025700066000140700001401C1012008210120021
:10258000A700014040200120BC0E120008210120BC
:10259000E0200120C0000140A01500400000FFFF26
:1025A000A4150040A81500406C21012070210120D5
:1025B0007621012082210120862101208C21012009
:1025C0009221012016000140BE000140807CFB7F6B
:1025D00018000140394B4CF281011A804FF4D0723F
:1025E0005A804CF281029A8098BF012203F10403C1
:1025F00098BF5A800023324A012C138053809EBF1B
:1026000042F684422F4B1A8000232F4A13805380B6
:102610009380D180082111814CF60121538193814F
:10262000D18113825382BDE8F88345F4D405056057
:10263000056825F4F85545F470650560056825F0D2
:10264000FF0545F02A050560106820F07F0040F086
:1026500008001060106820F4FE4040F43450106010
:10266000106820F4F81040F400201060106820F08A
:102670007F4010600A6822F47F0242F4D4020A60AC
:102680000A6822F4F85242F470620A600A6822F082
:10269000FF0242F02A020A601A6822F07F0242F02A
:1026A00006021A601A6822F4FE4242F4A85251E669
:1026B000312E7FF4B8AE0323B6E600BF9621012089
:1026C0009E210120A2210120A4210120C0B21438A2
:1026D0002E2863D8DFE800F01C1E30322C2E1A188A
:1026E0002022282A24263436383A3C3E40444248A8
:1026F000464C4A58565C5A504E545262626262626C
:1027000062626262625E6000FFF760BAFFF765BAFC
:102710001DF03CBBFFF768BAFFF76DBAFFF772BA5E
:10272000FFF777BAFFF77CBAFFF781BAFFF786BAEF
:10273000FFF78BBAFFF790BAFFF795BAFFF79ABA8F
:10274000FFF7A6BAFFF79DBA1CF08CBBFFF7A7BA3C
:10275000FFF7ACBAFFF7B1BAFFF7B6BAFFF7BBBAEB
:10276000FFF7C0BAFFF7C5BAFFF7CABAFFF7CFBA8B
:10277000FFF7D4BAFFF7F5BAFFF7FABAFFF7FFBAD7
:10278000FFF704BBFFF7D1BAFFF7D6BAFFF7DBBA02
:10279000FFF7E0BAFFF701BBFFF706BB0020704769
:1027A000F8B5174CA8B90A260546FF27A682F0B24D
:1027B00001362561E7826560A560E581A581256018
:1027C0002146B6B21BF0BAFF302E04F11804EDD149
:1027D000F8BDFF27002504F56476E08AFFF776FF51
:1027E00010B1436820469847E7826560A560E5819F
:1027F000207D18341BF0FAFFB442EED1F8BD00BFC3
:10280000401B0020F7B5044640880E46FFF75EFFE8
:1028100038B3164A0023114665889F18FF8AAF42D5
:1028200021D01833B3F5647FF7D10023182202FBBF
:102830000315EF8AFF2F0FD104F1080100910768FB
:102840006378A288A11D2846B84718B96388EB822F
:10285000AB8A338003B0F0BD0133262BE7D14B2088
:10286000F8E74020F6E74220F4E700BF401B0020D5
:10287000F8B506460024074FE519E88AFFF726FF5A
:1028800018B183683146284698471834B4F5647FF8
:10289000F2D1F8BD401B00202DE9F04106460F465D
:1028A0000024DFF8248004EB0805E88AFFF70EFF18
:1028B00020B1C3683A463146284698471834B4F5E3
:1028C000647FF0D1BDE8F081401B00200023182177
:1028D00030B5064C01FB0342D58A854201D110690F
:1028E00030BD0133262BF5D1002030BD401B002028
:1028F0004388C3F30E001B0448BF40EA0120704721
:102900000388C3F30E001B0448BF40EA0120704750
:102910000B7903704B7943700B8883701B0AC3706B
:102920008B7903714B8843711B0A837170470000D8
:10293000C26A10B5140448BF40F27124036B48BF4B
:10294000C2F30D024FEA43034CBF04FB0232D2181C
:1029500090F84A3013441E4A12683AB1934205D99E
:102960001C4C2478BCB9002908BF1346B0F8542089
:102970000E2B4FEA520440F2712238BF0E236243FD
:10298000963A9A4209D841B990F85A3043F0100368
:1029900080F85A3010BD1346E8E7B3F5005F0DD359
:1029A00040F2712203F51C73B3FBF2F36FEA434369
:1029B0006FEA534382889BB20AB101339BB25C2217
:1029C000B0F850104A4304495352C36210BD00BFCF
:1029D000041F0020D01E002006220120F0B540F286
:1029E00071275C25838DD0F828C007FB0131B1FB2E
:1029F000F7F2B0F8783002EB0C0E5D431E4B07FB8C
:102A00001212EB5A82859CB226B2002EBCBFC4F3D0
:102A10004D0307FB131140F2712790F87130A8BFE6
:102A2000A1EB5401C91AB1FBF7F307FB131163447F
:102A300023F078438360036D002E1A89B8BFC4F376
:102A40000E04C2EB421302EB830202EB820293B24A
:102A5000BEBFC4EB441204EB820404EB8404438243
:102A600023444382054B89B22EF0784EC0F828E00B
:102A7000E9528182F0BD00BF06220120F22101202F
:102A80007047000070B506460D460C200021144624
:102A90001BF0DCFC0572447246600146BDE87040E4
:102AA00001481CF051B800BFE41E002010B5002101
:102AB000044608201BF0CAFC44600146BDE81040F3
:102AC00001481CF041B800BFDC1E002070B506466E
:102AD0000D4672B607481CF047F862B640B1027A5C
:102AE00044683270437A2B701BF0FEFC204670BDA8
:102AF0000446FBE7E41E00200B4B1A6852B140F27B
:102B000071225B68588A9B68B0FBF2F0184420F091
:102B1000784070474FF00042044B1A601A68002A50
:102B2000FCDB1868704700BFD41E00201C15004055
:102B300010B570B1094B9C683CB16368984206D1EE
:102B40000022214606481CF017F8204610BD2468D4
:102B5000F2E70348BDE810401CF006B8D41E002080
:102B6000DC1E002070B50446002800F098808568BF
:102B700000F1280605F00F05FFF7DAFF08B11BF09A
:102B8000B3FC94F87F3093B994F88230DA0606D516
:102B90002046BDE8704000220121FFF773BF03F01B
:102BA0005DFC3F4B5B6993F82130002B6CD094F8AF
:102BB0007F30012B2BD194F88230DB06E8D4A1685A
:102BC000E26D384B521A12B2012AB8BF012290B2FC
:102BD0006FEA42426FEA524292B2188023F8062C02
:102BE0006368A3B1B3F87C009B68CB1A23F07842EA
:102BF000B2FBF0F300FB1323C31A9BB2052B9CBF5F
:102C00001B189BB25B08013B274A9BB21380002331
:102C100005F1006505F59045AD002B8094F87F30F7
:102C2000033B012B03D8B4F8780006F0AFF85C231F
:102C3000B4F87820B4F8601053431C4A30469952D7
:102C40002B8823F030031B041B0C2B802B889BB29A
:102C500023F00F0343F002032B80B4F87A306B802B
:102C6000134D05F033FC214628461BF06DFF94F808
:102C70007F30012B13D895F8293083B106F01AF86C
:102C8000002385F8293070BDA268E36D9B1A1BB242
:102C9000012BB8BF0123034A9BB2138087E770BDA5
:102CA000241F0020EC240120EA2401203C220120E2
:102CB000D41E002070B504460E46154672B690F834
:102CC00083306BB903210C201BF0C0FB012344604F
:102CD00006724572014684F8833006481BF034FFC3
:102CE00062B62020FFF708F9BDE8704006201BF00F
:102CF00027BB00BFF41E002073B505201BF02EFB80
:102D00000DF107010DF10600FFF7E0FE0025044676
:102D10000CB902B070BD9DF8063004F12806032BF3
:102D20001FD1B4F87800214606F06CFDB4F87800A5
:102D300006F0E6FD304605F07BFA9DF80630013BD3
:102D4000012B06D828B9B4F8780008284BD009F030
:102D500037FD0DF107010DF10600FFF7B7FE044640
:102D6000D6E7042B04D1B4F8780006F00BFEE1E7B7
:102D7000052B16D1B4F878204FF48570120242F07A
:102D8000010292B211461BF017FC0322027094F864
:102D90007420C27094F87320057182701BF026FCB9
:102DA000C8E7012B09D194F88220D206C2D51A4671
:102DB00011462046FFF77EFFBCE7022BBAD172B660
:102DC000A36C2BB104F148001BF0CEFE09F0F8FE15
:102DD000236B2BB104F130001BF0C6FE09F0F0FEAE
:102DE00062B60022E4E703F07BFCB2E75C235843C1
:102DF0000D4A10B5835A9BB2C3F3042403F03F037A
:102E000001FB0431252491FBF4F304FB1311835AD5
:102E10000029B8BF25319BB209B223F03F03194303
:102E200089B2815210BD00BF02220120F8B5424B89
:102E30001B895A1EB2F5FA7F54D2142B55D91E2B7A
:102E400055D9322B55D94B2B55D9642B55D9962BA7
:102E500055D9FA2B8CBF00230123384C84F8283035
:102E6000002384F8293084F82A3084F82B3084F841
:102E70002C3008B304F1100006F003F804F1180038
:102E800005F0FFFF72B6264604F1080723680BB968
:102E9000A3684BB130461BF067FE0546002835D1CC
:102EA00038461BF061FE60BB62B6254D236A002BDD
:102EB0003CD12020FFF732F820481BF041FE21488A
:102EC0001BF03EFE20481BF03BFE1D481BF038FE69
:102ED0001E4905201BF028FABDE8F8401C490620D1
:102EE0001BF022BA4FF4FA73B3E70723B5E70623C2
:102EF000B3E70523B1E70423AFE70323ADE70223DC
:102F0000ABE745681BF0F0FA002DCDD005F12800A5
:102F100005F0FEFC286D08B11BF0E6FA686808B100
:102F20001BF0E2FA28461BF0DFFAAFE728461BF059
:102F30001BFE1BF0D9FAB9E724000020D41E0020A4
:102F4000F41E0020E41E0020EC1E0020F92C1000CE
:102F50007930100010B5114B044693F82C3080F8EE
:102F60005830002380F8563080F85B3080F84530C8
:102F7000838680F85C3072B608301BF0E1FD04F106
:102F800010001BF0DDFD04F118001BF0D9FD04F169
:102F900020001BF0D5FD62B610BD00BF0C1B002049
:102FA0002DE9F04104468846174672B6314E014677
:102FB00030461BF007FE60B194F88230202043F0C9
:102FC000100384F88230FEF797FF002062B6BDE858
:102FD000F0812046FFF7ACFD0546002848D1002CC3
:102FE0003BD0306A002833D1B8F1000F03D004F190
:102FF000280005F08DFC87B1B4F878104FF400700C
:1030000007299FBF090201F47F41022241F001011B
:1030100084BF022200211BF0F9FA204614F020FFA1
:103020000022214613481BF0A7FD206D20B114F0AB
:1030300095FC206D1BF058FA606808B11BF054FA3B
:1030400020461BF051FA6DB128461BF04DFA09E0FD
:1030500043689C4208D00068C4E706F120001BF0DA
:1030600083FD08B90120B1E74468002CBCD1F9E721
:103070004468FAE7D41E00202DE9F04106201BF039
:103080006DF972B6144D62B601262C6A05F120085E
:1030900044B972B62B6A13B92020FEF73FFF62B61F
:1030A000BDE8F081606820B1627A217AFFF778FF8D
:1030B000064627685EB172B60022214640461BF0E4
:1030C0005BFD62B620461BF00FFA3C46E0E772B6A5
:1030D0003C4662B6DCE700BFD41E002030B50A4B88
:1030E0000A4A93F8283032F8134032F8112042F29D
:1030F0000F71074B5B685D1E8D4288BFA3182922A4
:1031000050435843000C30BDD41E0020B42C120094
:103110002400002038B50446B0F8623000F12805DC
:10312000B0F87C0094F86E1003FB000080B2FFF74B
:10313000D5FF78B1A0655C23B4F8782094F87510B9
:103140005343064A28469B5A9BB26365BDE8384004
:10315000FFF7EEBB0123A365EDE700BF06220120C8
:103160002DE9F74F90F87F300446894600F1280B8F
:10317000042B00F20984DFE813F005002C00E503BE
:103180006700A101C64BC74D5B6993F82110002968
:1031900040F0DE83FFF7B0FC6B7BE26D03F00F03C2
:1031A00043F4204343F050032382131A23F078435F
:1031B000B3F1806FA060E26040F2E683801A30F0E5
:1031C000784300F0E183002003B0BDE8F08F0020D9
:1031D000CAE390F86030DBB15C23B0F87820534349
:1031E000B14A9B5A1E0413D590F8613083B1AF4B9E
:1031F00002F2DE221B8812889BB243EA02438362FA
:10320000AB4B1B88C3F30903C3F51C738385DAE753
:10321000A16DB4F87C30626D0B4423F0784140F22C
:103220007123B2FBF3F39F4A0B44527823F07843A7
:1032300002F00F0242F4204242F05002A165A16068
:10324000E3652282E3609FE3B0F87800994E56F878
:103250002020B2F860301D0405D5C3F30E03A2F898
:10326000603009F0EDFBB4F8780056F82020B2F891
:103270006030590405D523F48043A2F8603009F08A
:10328000ADFBB4F85C30B4F86020591E89B28A42B4
:1032900040F0E98094F86D10002900F07C83142040
:1032A0000229A07500F0D680032900F0D8800129FA
:1032B00040F0AB806568B4F87C00B5F87CE0B4F809
:1032C00078C0704505F1280756F82C100BD1B4F8DA
:1032D0005E80B5F85E00804505D1B1F85880B1F840
:1032E0005A00804505D0B1F8600040F08000A1F898
:1032F0006000A5F86020A5F85C3094F8703004F107
:10330000480285F8703005F1480392E8030083E82D
:10331000030004F1300205F1300392E8030004F1E8
:10332000400283E8030092E8030005F1400383E8CC
:10333000030004F1380205F1380392E8030083E842
:103340000300A5F878C094F8823040F2712885F81F
:103350008230012385F86D30B4F868305846A5F8FE
:103360006830B4F86A30A5F86A3094F8743085F89B
:10337000743094F8733085F87330B4F87A30226D75
:10338000A5F87A30AB682A65A3EB0E0323F07843E7
:10339000B3FBFEF1A3600EFB1133D3806B8AA2F85E
:1033A00004E0B3FBF8F108FB11339BB2002B0CBF18
:1033B0000B464B1C138194F88130394685F88130D7
:1033C00060221DF02CFB638A0027B3FBF8F85C2316
:1033D000B4F8782067605343374A6F602F6523F84D
:1033E0000280B4F87830204656F82330B3F85420E1
:1033F000B3F8521005F056FD28463A463946FFF715
:1034000059FCB4F8780006F023FAB9F1000F04D0A3
:103410000121B4F87800FFF7E9FCA268B4F87C3029
:10342000134423F07843A3600023A4F86230B4F877
:10343000603094F8822001339BB29707A4F8603083
:1034400040F16E82052B40F29F8242F0100284F818
:10345000822099E2B4F8780006F01CFAD5E72046FD
:1034600005F0BAFDD1E79A42CFD11423A37594F8A1
:103470006D30022B0ED0032B0FD0012B04D1002274
:1034800003212046FFF7FEFA002384F86D30A4F8EC
:103490005C30BAE700220421F3E700220521F0E7BF
:1034A000241F0020AE0E12004422012020250120FE
:1034B00024250120282000200A220120D449B0F828
:1034C00078008A4651F82020B2F8603013F4004F9B
:1034D00005D0C3F30E03A2F8603009F0B1FAB4F8D6
:1034E00078005AF82020B2F860305E0405D523F445
:1034F0008043A2F8603009F071FA5C23B4F87820B8
:10350000C44953435A5A15043CD5B9F1000F40F051
:10351000D1812020C04A985272B6236B002B40F014
:103520008381236C002B40F07F81A36C003318BF94
:10353000012362B694F8840094F88220002800F0F9
:10354000758194F885601EB162F07F0284F8822054
:10355000B6B2A4F86260771C5C23B4F87820AF4858
:103560005343AF4A9A5A185A5B5A92B2C3F30903AB
:10357000C3F51C73A385002342EA0042A26284F8CB
:10358000753002E001271FFA89F694F8823013F0B3
:10359000100240F0F981B4F87CC0B4F862801807DA
:1035A00008FB0CC81FFA88F840F18B81B4F85CE086
:1035B000B4F860000EF1FF3189B2884240F0898191
:1035C00094F86D20002A00F07C811421022AA17554
:1035D00000F07381032A00F07881012A40F07181A4
:1035E000656805F128020192B4F878205AF8221093
:1035F000B5F87C2094450BD1B4F85EA0B5F85EC058
:10360000E24505D1B1F858A0B1F85AC0E24505D05D
:10361000B1F860C04CF0800CA1F860C0A5F8600063
:1036200005F1280C04F1280103C98CE8030005F119
:10363000480C04F1480103C98CE8030005F1300C83
:1036400004F1300103C98CE8030094F8701005F10F
:10365000400C85F8701004F1400103C98CE80300A8
:1036600005F1380C04F1380103C98CE80300B4F803
:103670006610A5F8661094F86C1085F88230012366
:1036800085F86C10A5F85CE085F86D3094F86E3024
:1036900085F86E30B4F86830A5F86830B4F86A3050
:1036A000A5F86A3094F8713085F8713094F872306A
:1036B00085F8723094F8743085F8743094F873306B
:1036C00085F87330B4F87A30216DA5F87A3040F27D
:1036D000E24329656B8294F86C0043436B6594F870
:1036E0008130B5F8780085F881306B7ED21A5C2382
:1036F00043434C4892B21A52B4F8662094F86C30A6
:10370000A06803EB42039844B5F87C30B5F812E0AA
:10371000B0FBF3F203FB120240F271208B80BEFB80
:10372000F0F3B1F808C0CA809AB294451FFA88F83D
:1037300007D200FB13E39BB2002B0CBF1346531CB4
:103740000B814FF0000A6022019958461DF067F97D
:103750005246C4F804A0A4F862A051462846C5F811
:1037600004A0C5F850A0FFF7A5FAB4F8780006F059
:103770006FF894F86E104046FFF7B0FC40F27122EB
:1037800094F86C30012102FB03005C23B4F878202C
:10379000A0655343204A58469B5A9BB26365FFF786
:1037A000C7F8012384F86CA0A4F866A084F87530EB
:1037B00041462046FFF712F9B4F860301F44002359
:1037C000A4F86070A4F8623026B131B2B4F8780081
:1037D000FFF70CFBB4F85C30B4F86020013B9BB2FF
:1037E0009A4208D194F86D302BB194F8823043F0AE
:1037F000080384F8823094F88230990740F1908071
:10380000052A40F2C18043F0100384F88230BBE007
:1038100028200020442201200622012042220120EB
:10382000402201200C220120012382E62BB912F054
:10383000090F02D194F86F3043B10026594BA4F818
:103840006260DB7B84F87630012785E6B4F85E6041
:1038500094F86E30013EB6B243B9534B93F828301A
:1038600023B9B6F5E17F28BF4FF4E17694F86D30C7
:103870006BB1B4F85C30B4F86050581E80B2A84206
:1038800005DD5B1B023B9E4228BF1E46B6B2002EE2
:10389000DAD094F8763043B962F07F02771C84F86E
:1038A0008220A4F86260BFB256E6013B84F876300D
:1038B0000026C9E70126374667E6B4F8780005F028
:1038C000E9FF2046FFF726FC72E7204605F084FB5F
:1038D000F7E770451FD11423A37594F86D30022BC0
:1038E00015D0032B15D0012B05D10321A4F8662098
:1038F0002046FFF7C7F894F8823023F0080384F8D5
:103900008230002384F86D30A4F85C30D9E70421BC
:10391000EEE70521ECE723F0080384F88230D0E7D6
:10392000B9F1000F30D1204605F0B5FA60BB94F82C
:103930008230204613F0050F14BF0421032105F047
:1039400009FB21E08368043323F0784383601BE0A4
:10395000144B9B7B002B7FF43AAC1DF045F900F033
:103960000F00431C03F01E00A268B4F87C3013441F
:10397000034423F07843A360EB7A03F00F0343F48E
:10398000C14343F02003238294F8820080F01000AA
:10399000C0F3001018E49A427FF437AD1423A375E6
:1039A00072E500BF24000020D41E002038B5044674
:1039B0000D46204614F04EF9012805D072B6204677
:1039C000FFF774F862B638BD25B1A37D1E2B9CBFEE
:1039D0000133A37501212046FFF7C2FB02460028F0
:1039E000E7D120460121FFF74DF8BDE8384005201A
:1039F0001AF0A6BC10B50446FFF79AF808B11AF001
:103A000073FDA37D01211E2B9CBF0133A3752046AE
:103A1000FFF7A6FB0246012120461AB1BDE810407F
:103A2000FFF7C4BFFFF72EF8BDE8104005201AF0DD
:103A300087BC0000F8B504461BF02AF894F87F30E4
:103A4000042B40F0BF8094F882301A0700F1BA804E
:103A50001F0604D494F88420002A00F0B380657E09
:103A6000B4F87C10054425F07845A2686818121A4D
:103A7000554822F07842824200F2A480A26A561B86
:103A800026F07846B6FBF1F6002E00F09B8072B669
:103A9000226C1AB143F0040384F8823021464B486B
:103AA0001BF090F8074640B92046FFF741F808B1EF
:103AB0001AF01AFD204614F0D3F962B6002F40F038
:103AC0008180B4F87C30A26AB4F87800D21A03FB83
:103AD000162323F07843A362B4F86030B6B2013BFA
:103AE0009B1B7142A4F8603009B2FFF77FF994F88C
:103AF0008230304603F07F0384F8823094F86E10F1
:103B0000FFF7ECFA5C22B4F8783031495A43535A43
:103B10009BB21E0442BF40F27126C3F30D037343F0
:103B2000A3EB40000D2823D9B0F5005F07D340F286
:103B3000712300F51C70B0FBF3F040F4004083B239
:103B40005352B4F87C60204F606531462046FEF742
:103B500045FFA368EB1A23F07843BB420AD8B4F8B8
:103B6000623020460133A4F86230FFF7D3FAECE765
:103B70000E20E4E7B4F86210B4F86030B4F87800CE
:103B80000B440133A4F8603009B2FFF72FF9B4F801
:103B90005C2094F88230B4F86010013A92B203F0DD
:103BA000F703914284F8823006D194F86D201AB15F
:103BB00043F0080384F882302046BDE8F840012134
:103BC000FFF7F4BEF8BD00BF00BB3000D41E0020DC
:103BD0000622012070B5054660200E4613F09CFEBB
:103BE00004462830FFF7B6F9012384F87F3005EB4F
:103BF0004503A4F87850C5EBC305AD00013605F5C3
:103C0000F87500212046A4F85E60A4F87A5005F00B
:103C1000A1F90E4BE3610E4B63620E4B236202234C
:103C2000637640F2E24363820B4B5B7803F00F0351
:103C300043F4C04343F0500323820023E37523760B
:103C40001AF026FFA060204670BD00BF652B100053
:103C5000F5391000812A1000AE0E12002DE9F74F41
:103C6000044601934668894613F065FE5C22B4F869
:103C70007810B6F87CA04A4352498046555AB2683B
:103C80002046B2FBFAFB0AFB1B2B0022626003F00A
:103C900005F91AF0FDFE0C22019BADB253434A4ACE
:103CA0006D009A5AA38DC2F3072203EBC20340F2C0
:103CB000712203F28E43B3FBF2F3A26AADB2013A72
:103CC0001344B2681FFA8BF7904223F078436AD20C
:103CD000B6F87C40144424F07842B2FBFAF40AFBB4
:103CE0001424E21A22F07842B2F1806F91BF134699
:103CF0001B1B23F078435B42AB42BCBF544424F00F
:103D00007844051B25F07845B5F1806F04D9251A54
:103D100025F078456D4285B995FBFAF50135ADB2D0
:103D20000AFB054429B24846FFF760F8B6F8603050
:103D300024F078441D44A6F8605040F27122B6F891
:103D40007C30B460A8F80430738A4046B3FBF2F3C9
:103D50000022A8F80830B6F87830A8F80C2003EB59
:103D60004302A8F80A30C3EBC2039B0003F5F873C3
:103D7000A8F80E30A8F8067013F0EAFD3046C6F831
:103D80005080022105F0E6F896F88230304643F084
:103D9000020386F88230012386F8733086F8743087
:103DA00003B0BDE8F08FA3EB0B0B2BF0784BBBFB04
:103DB000FAF20AFB12BB0AEB0304A4EB0B0424F097
:103DC00078448EE730220120B82901202DE9F04304
:103DD00004468BB060200F4691469846149D13F020
:103DE0009BFD064600287CD02346024604F12C01A8
:103DF00053F8040B8B4242F8040BF9D106F128006A
:103E0000FFF7A8F8BDF84830ADF818700133A6F8F0
:103E10005E3003230597002786F87F309DF84C30ED
:103E200001A98DF81A30B4F8783004A803EB4302E6
:103E3000ADF82030C3EBC2039B0003F5F873ADF877
:103E40001090ADF812808DF81E70ADF82270ADF8AC
:103E5000263014F097F801A904A8ADF81C708DF86D
:103E6000247013F095FD00283FD1BDF8043001A95E
:103E7000A6F87C30304604F066FFB4F85E20A068F7
:103E800002EB42025200B4F87C3092B202FB030310
:103E9000B76823F07840B4F86010C31B23F0784370
:103EA0001144B3F1806F89B203D93B1A23F07843F0
:103EB0005B42B6F87CE00EF1FF32134493FBFEF355
:103EC00001220EFB037323F07843B3601B1AC3F384
:103ED00059032A71A4F85C102B806980666084F80D
:103EE0006D2030460BB0BDE8F0833A4601213046E4
:103EF000FEF7E0FEBB68FFDE2DE9F04F07468FB00E
:103F000060208B469146029313F006FD00F12803D2
:103F10000093044613F00FFDC04A9BF821801688D9
:103F200002321288B6B246EA0246BD4ABBF814A075
:103F300012889BF813B0C2F30903BA4A05461288E7
:103F40000193C2F307224FEA58183A76002C00F08A
:103F50005F810098FEF7FEFF484600220121FEF730
:103F6000A9FE3A88B0495200A4F87C207A88C97B1F
:103F70000132A4F85E20042284F87F200222A4F8F3
:103F800064200022BDF8083084F8752084F86E8023
:103F900084F87610A4F8783099F81910DFF8989220
:103FA000617640F2E24120466182B988039205F0D1
:103FB00099F899F82B10039A002900F0128199F8CA
:103FC0002C10002900F00D813A88B4F8780001FB2C
:103FD00002A31FFA83FAFEF709FF99F82C10B4F830
:103FE000602084F885100A44A4F86020012284F837
:103FF00084200BF1020707EB4A039FB24146384683
:10400000FFF76CF8212384F87130002384F87230B4
:1040100040F2E2434FF0010803FB0BFBABF121033D
:10402000A065636584F8738084F8748041460098C5
:10403000FEF77EFC019B84F87580C3F56A739BB222
:10404000B3F51C7F05D9019B4644C3F59B734344DC
:104050009BB2A385B4F87830A66203EB4302C3EBAE
:10406000C2039B0003F5F873A4F87A306F4B022665
:10407000E3616F4B4FF0000963626E4B4FF0010834
:1040800023624FF4C04302212382204604F062FFE2
:1040900094F8823005A943F0020384F88230B4F822
:1040A0007C3008A8ADF82030ADF82230B4F8783074
:1040B000ADF8149003EB4302ADF83030C3EBC2030C
:1040C000B34003F5F873ADF83630CDF81890ADF87D
:1040D0001C900996ADF828608DF82A908DF82E80F6
:1040E000ADF8328013F04EFFA168B4F87C2008A828
:1040F000B1FBF2F302FB131305A9ADF82C3003EA70
:1041000008038DF8343013F043FC00283FD005A994
:1041100008A88DF82E9013F03BFC8146002836D17C
:10412000029B3246190201F47F41222341EA080131
:1041300040F209101AF040FA80F80080BDF814101F
:10414000064621FA08F343808380C3810382B4F8D2
:104150005E3080F81290013BC38040F6B833038193
:10416000B4F86030A268838243818381BDF81C006B
:1041700004F0DDFD4FF6FF7320FA08F0F082338380
:104180007383B383F383338430461AF02FFAB4F881
:104190007C30A168AB80B1FBF3F203FB1212022367
:1041A000EA8001222B81B4F87830AA8103EB430224
:1041B0006B81C3EBC2039B0003F5F873EB812846C8
:1041C00013F0C6FB256539462046FEF707FC94F838
:1041D000823043F0010384F8823020460FB0BDE8FE
:1041E000F08F84F8842084F88520627EB2EB4A0F39
:1041F000FFF4FFAE3A8801210AEB0203B4F878001D
:104200001FFA83FAFEF7F2FD0122A4F86020F0E61F
:10421000224601214846FEF74DFDDEE7202501201C
:1042200024250120E024012024000020652B10001B
:10423000F5391000812A1000D41E00202DE9F0412C
:104240004389B1F8602006469A420C4636D1B1F84F
:1042500078204F4BB1F87C1053F8222083885B0004
:1042600099420BD1F188B4F85E000131884205D142
:10427000B2F85800B2F85A10884205D0B2F860106F
:1042800041F08001A2F86010A4F87C30F388204649
:104290000133A4F85E30318904F024FF7389A4F857
:1042A0005C30012384F86D3094F8823023F00803E9
:1042B00043F0010384F88230BDE8F081602013F000
:1042C0002BFB0546002861D02346024604F12C0151
:1042D00053F8040B8B4242F8040BF9D105F1280086
:1042E000FEF738FEB4F878302846A5F87830B38861
:1042F0005B00A5F87C30F3880133A5F85E30318986
:1043000004F0F0FE042385F87F3094F86E1085F8F1
:104310006E10B4F86430A5F8643095F8823043F03C
:10432000010385F882304FF6FF736B827778B6F819
:104330000280B4F87C0008EB070300EB430080B276
:10434000FEF7CCFE40F2E2437B43A86594F871206F
:104350009B1A01226B65738984F86D2094F8822082
:10436000A4F85C3042F0010184F88210013BB4F8FB
:1043700060109BB2994208BF42F009026560A4F840
:10438000668084F86C7008BF84F88220BDE8F081F4
:1043900028200020F8B50546602016461F4613F079
:1043A000BBFA04462830FEF7D5FD40F2E243A4F8FC
:1043B0007C600026638205EB4503A4F87850C5EBCA
:1043C000C305AD0005F5F87584F87F6084F87E605C
:1043D000A4F87A500521204604F0BCFD0223637640
:1043E0000B4BE675E3610B4B267663620A4B236247
:1043F0004FF4C04323822FB994F8823043F0200356
:1044000084F882301AF044FBA0602046F8BD00BF5B
:10441000652B1000F5391000812A1000F8B55C23D7
:10442000B0F8782057495343574A04469D5A595A81
:104430009F5A04329B5AC5F3072505EB1125180630
:1044400005F0FF05BFB207D535B9A37D1E2B01D8F6
:104450000133A375012073E094F88230D90613D498
:104460005A0607D523F0400384F8823094F87F3051
:10447000012B02D894F88130A3752DB994F87F30C0
:10448000002B3ED0012B42D094F87E1004F128007E
:10449000691AC9B204F07CFA94F87F10022960D03E
:1044A00094F87E200121AA1AD2B22046FEF7EAFA39
:1044B000364B013D93F898341D446B4203F00703DB
:1044C00005F0070558BF5D420C23EDB25D43304B4C
:1044D000EB5AC3F3001384F86F3094F87F30012B4C
:1044E00007D194F8602022B117F0FF0F18BF84F8AD
:1044F00061300023052084F87E3019F021FF01206F
:104500001DE0244B5B6993F82130002BBCD1FEF7F2
:10451000F3FA214BA0605B78204603F00F0343F4CD
:10452000204343F050032382E36DE36013F092FBDA
:1045300006460028A8D12046FEF7B8FA30460546C0
:1045400094F8823013F0300611D180B13146204604
:10455000FEF706FEA8B131462046BDE8F840FFF759
:1045600025BA05F001022046FEF78CFAB5E7DB0616
:1045700007D535B901222046BDE8F8401146FEF7BF
:1045800099BBF8BD4822012046220120502000207E
:10459000B8290120241F0020AE0E120038B55C237C
:1045A0000446B0F87820283053430B4A9D5AC5F38F
:1045B0000335294604F0ECF994F87E3020462B446C
:1045C00084F87E302A460021FEF75CFABDE83840C8
:1045D000052019F0B5BE00BFF621012038B505460B
:1045E0000F481AF0C1FA0446C8B113F039FC8DB176
:1045F00094F8823043F0400384F882302046FFF77D
:104600000DFF084B93F8C8304BB1BDE8384001208E
:1046100019F096BE238A9B0B18BF2582EEE738BDA2
:10462000D41E0020241F0020024B186808B1FFF799
:10463000B5BF7047D41E0020024B83F82B0083F8CF
:104640002C107047D41E002000220B4B10B51A60AE
:104650000A4B1C882046FDF7A7FC094B03EA802083
:10466000084B18602046FDF7B1FC074A136823F099
:104670000043136010BD00BFA0170020081F0020DA
:1046800000FCFF033C1500403015004010B51A4CEB
:10469000236823F000432360184B1868FDF75AFC89
:1046A000174991F82A30184440F27123B0FBF3F314
:1046B000C3EB431203EB8202C0F51C7002EB8202D3
:1046C000104480B298B901224FF41C70013381F874
:1046D0002A200C4A13600C4B1860236843F008032F
:1046E0002360012342F82C3C42F8383C10BD0022E4
:1046F00081F82A20EDE700BF301500403815004052
:10470000D41E00204415004040150040034B1A6899
:10471000034B1A600122034B1A707047A017002048
:104720000C1500409C17002010B5094B0268094C7D
:104730001A604268013BC3F8052000225978105DD9
:1047400001320143082A03F8011FF7D110BD00BF51
:104750000A1F0020E410120008B5102200210548AD
:104760001CF068F90448FFF7DFFFBDE8084000F0DF
:10477000D7B800BF0A1F0020DC101200FFF7ECBF03
:1047800038B540F6030330F8082C05469A42A0F1EC
:104790000C040DD040F604039A421DD06FF4006360
:1047A0001A44052A13D8DFE802F0313127481240B5
:1047B00010F8043C3F2B11D8013BDBB22A49D80842
:1047C000095CA3EBC00341FA03F3D907E6D4204602
:1047D000BDE8384019F028BF3E23EDE7572B0BD832
:1047E000403BDBB2204AD9080A44127AA3EBC1034A
:1047F00042FA03F3DA07EAD515F8040C00F0ECF8F6
:104800000028E4D0437803F0030309E035F8040CF2
:1048100040B300F0BFF80028D9D08378C3F3011368
:10482000012B0ED01ED3022BD1D135F8063C072B1D
:10483000CDD81B0243F005030AE0287800F0DEF82B
:10484000DEE735F8063C072BC1D81B0243F009030D
:104850009BB2FF2BBBD025F8063C2846BDE838406C
:1048600019F0C4BE0823F6E70A1F002040F605022F
:1048700030F8083C10B59342044609D040F60702D0
:1048800093422DD0A4F10C00BDE8104019F0CCBE2D
:1048900030F8040C00F07EF80028F3D0837803F0A1
:1048A0000F03082BEED801A252F823F0F7481000AE
:1048B000E1481000F7481000E1481000854810005A
:1048C000854810008548100085481000D148100028
:1048D000032324F8063C2046BDE8104019F086BEAC
:1048E00034F8063C072BCDD81B0243F001039BB2E2
:1048F000FF2BEED1C6E70023EBE700BF022910B57E
:1049000003D0032907D0002010BD0368034A1360B9
:1049100043685360F7E7FFF707FFF4E7121F002033
:104920000022024B1A605A601A8170471A1F002039
:1049300040B139B1B0F57F7F06D9044B58809980DA
:104940000020704712207047112070471A1F002066
:1049500038B50546002444F0010019F031FF7F28E6
:1049600009D104F58074A4B2B4F5006FF3D1034B00
:1049700000201D7038BD0C2038BD00BF1A1F00205C
:10498000034A1389834294BF00231B1A1381704783
:104990001A1F0020002330B50E4A810A12F8335046
:1049A000DC008D4210D122445368528883B103EB5E
:1049B0008202C0F30900934209D01988C1F30901AA
:1049C000814205D00433F6E70133062BE6D10023FC
:1049D000184630BDEC101200002210B5064B13F83B
:1049E00012405100844201D1581810BD0132092AE9
:1049F000F5D1002010BD00BF4C121200002210B5EE
:104A0000064B13F812405100844201D1581810BDD2
:104A100001320C2AF5D1002010BD00BF5E12120039
:104A20000623074A10B503FB00200023CA18547858
:104A3000CA5C42EA0422C2520233062BF6D110BDF0
:104A40002C2501200623074A10B503FB0020002374
:104A5000CA185478CA5C42EA0422C2520233062BB6
:104A6000F6D110BD68250120F0B50C2595B00BAC32
:104A70000F46224645435D4BEB5A9BB203F1202380
:104A800003F5803303F1200E164618685968083381
:104A900003C673453246F7D140F676421B88338011
:104AA000BDF84610A1F10A039BB2934200F2938035
:104AB00040F67A40BDF842309A1F92B2824200F22C
:104AC0008A80BDF84420B2F5FA7F80F0848002FB32
:104AD0000333B3EB810F7ED20DF10E0007F0BAFD68
:104AE000002878D1BB0578D4414BEE5AB6B2002EDF
:104AF00073D0342206F118039BB203F1202303F58F
:104B0000803318680B909B88A380A6F2A453B3FB54
:104B1000F2F3DBB25A43374BD15AD35A01F00102B8
:104B200003F0020313438DF81E3000239DF81E107E
:104B300000930DF10E02204601F0B0FC00284AD18E
:104B4000BDF80E209DF81E10204601F04DFD0746D1
:104B500000283CD194E80300BDF842300690ADF83F
:104B60001030BDF84430ADF81C10ADF81230BDF86F
:104B700046302146ADF814309DF84D3004A85A094E
:104B800003F01F038DF8263014AB8DF8272053F85F
:104B90001E2DADF816609B88CDF81F20ADF8233090
:104BA000154BEB5A154DC3F3C0138DF82530AA6C85
:104BB000BDF80E3002F036FF0146A86404A804F0E8
:104BC0006FFC12A9BDF80E00AF6407F08BFD002149
:104BD000084619F0C5FD15B0F0BD074B0026EB5A8D
:104BE000C3F380138DF81E309FE700BFBC2901205E
:104BF000BE290120A4250120B8290120241F00205E
:104C00002DE9F04F0C254543B44EB54F35F80680DD
:104C1000EB5B8BB09BB203F1202303F58033186864
:104C200008F00F0808909B88ADF82430AD4B1A6946
:104C30009A46927A012A00F09D80B8F1010F00F0A7
:104C40009980A94BB8F1010FEC5AA3F1080335F88C
:104C50000390EB5BEA5BA4B292B202F1202202F570
:104C6000803252791FFA89F99BB2039240F0C480D6
:104C7000DAF81020127A012A40F2BE80AA5B1206EE
:104C800040F1BA8006339BB203F1202303F5803351
:104C900093F8058008F0C002402A40F0AD802CB1A6
:104CA00009F4C062B2F5C06F40F0A680DA7893F8DC
:104CB00000B093F801A093F802901B790A200192AA
:104CC000029301F0ADFB002851D0002212231146BF
:104CD00040F6040019F070FC0B2201210270834A97
:104CE0004170059104901278D2B28DF81E20804A4E
:104CF0009DF81E00D2699047049B05995874AA5BE1
:104D0000181D02F00F029A70002C57D004F11802FF
:104D100092B202F1202202F580321168A4F2A4546A
:104D200059609288039982803422B4FBF2F4E4B291
:104D30005443704A01F0C001A25A402902F0010216
:104D400008BF42F00202DA709DF8042083F80BB02D
:104D50009A739DF8082083F80CA0DA73012283F877
:104D60000D9083F810809A721846FFF709FD0BB07A
:104D7000BDE8F08FDAF80840B4B95F4819F05DFF7C
:104D80000A28F4D021460C2019F060FB014608984F
:104D9000C1F80500BDF824305748A1F8093081F862
:104DA000048019F0D1FE4CE7611D08A819F04DFFF1
:104DB00010B123794345DAD02468DDE7EA5B92B28B
:104DC00002F1202202F5803214685C6092888280B1
:104DD000AA5B83F80BB0C2F38012DA709DF804204E
:104DE00083F80CA09A739DF8082083F80D90DA736D
:104DF00083F810809972B7E7012001F011FB0028B9
:104E0000B5D000222B23114640F6040019F0D4FB44
:104E10004FF0020A4FF0010B344B80F800A080F8ED
:104E200001B01B788046DBB28DF81F30304B9DF807
:104E30001F00DB69984788F82A00AB5B03F00F037B
:104E4000062B06D8DFE803F004082B0530052D00FB
:104E5000002388F8023001E088F802B098F80230A8
:104E6000012B23D1002388F80A3008F1040224B171
:104E700009F4C069B9F5007F40D1EB5B9BB203F147
:104E8000202303F580331968C8F804109B889380A9
:104E9000AB5BC3F3801388F80330404665E7032318
:104EA000D7E788F802A0D9E70423D2E7AB5B08F183
:104EB0000B00C3F30723063BDBB21F2B88BF1F2366
:104EC00088F80A30E95B98F80A20063189B201F1C6
:104ED000202101F580311BF0A2FDC6E7B829012091
:104EE000BC290120241F0020BE290120C800014048
:104EF0000C1B0020A42501202C1F002004F1180306
:104F00009BB203F1202303F580331968A4F2A45463
:104F1000C8F804109B8893803423B4FBF3F4E4B204
:104F20005C43064B039AE35A02F0C00203F001030C
:104F3000402A08BF43F00203ADE700BFA4250120CB
:104F4000F0B50C2591B06F464543434B0446EA5AF1
:104F500092B202F1202202F5803293881068ADF8F7
:104F600004303E4B00901A8803AB92B202F120222B
:104F700002F5803202F1100E1E46106851680832A8
:104F800003C672453346F7D11068354B30609288BE
:104F9000B280EB5A9BB2002B52D0342103F118029D
:104FA00092B202F1202202F5803210680B909288B2
:104FB000ADF83020A3F2A452B2FBF1F2D2B25143C9
:104FC000284A885A8A5A00F0010102F002020A4374
:104FD0008DF83220BDF81620234DADF82420BDF801
:104FE0001820ADF82A30ADF82620BDF81A20AB6C99
:104FF000ADF828209DF82120510902F01F028DF8FC
:105000003B108DF83A20ABB1B5F846209DF8321030
:105010000BA801F0E9FA064660B9234609AAB5F8DB
:105020004610A86C02F046FA0146A86409A804F0EC
:1050300037FAAE640021084619F092FB11B0F0BDBA
:105040000A4A97E80300AA5A0B90C2F380128DF81F
:105050003220ADF83010BDE7BC2901202027012007
:10506000BE290120A4250120241F0020B8290120E9
:1050700010B502460C460123002140F6010019F04C
:105080009BFA0470BDE81040FFF77ABB0021084688
:10509000FFF7EEBF10B502460C460123002140F693
:1050A000020019F089FA0470BDE81040FFF768BBF0
:1050B0002DE9F0430446C1B00F4672B6874819F097
:1050C00053FD804662B6864819F04EFD0646B8F19B
:1050D000000F00F00081002800F0FD808288B8F801
:1050E0000610804B804D23F8321081887F4A0020C3
:1050F00032F831306FEA43436FEA53439BB222F8F0
:105100003130052119F02CFB794AD5F81490136839
:1051100043F480231360B9F1000F1ED149462420C7
:1051200019F094F92422494668611BF083FC4FF47E
:1051300000626B691A83DA8207229A76012283F869
:1051400021204FF4C06283F81B9083F81C90694BB8
:105150001A8040F2046223F8082C42F234039F4282
:10516000654FA37863D1072B14D801229A4012F01F
:10517000F60F28D112F0090F0CD0604903F001039B
:105180000A6822F4005242EA43330B600B6843F48E
:1051900080530B606178A378B28843EA012027F836
:1051A00032002278272A06D829B1072B03D8E378C2
:1051B000591E012925D90021084619F0D1FA3020BD
:1051C00041B0BDE8F083013BDBB2062B98BF4C4AEF
:1051D00094F8019094BFD15C00214A4668461BF0C8
:1051E00029FCB8F806004A4600F12020694600F57F
:1051F00080301BF014FC414A136823F48053136081
:10520000C8E70C243F48B18804FB0101012002F0EB
:105210000DFDA864A96C002959D1084619F0A0FA1F
:10522000334A1F20136823F480231360C8E7072B39
:1052300014D801229A4012F0F60F22D112F0090F71
:105240000CD02E4903F001030A6822F4005242EA0E
:1052500043330B600B6843F480530B606178A37891
:10526000B28843EA012027F832002278272A02D8A0
:1052700009B1072B23D90021084619F071FA122031
:105280009EE7013BDBB2062B98BF1D4A94F80190C4
:1052900094BFD15C00214A4668461BF0CBFBB8F8AE
:1052A00006004A4600F12020694600F580301BF0D8
:1052B000B6FB124A136823F480531360CEE7002331
:1052C0000C241048B18804FB010118469FE7002018
:1052D00085F84E0074E7072072E700BF58200020D1
:1052E00050200020E0260120241F0020E22601207B
:1052F000001500402E270120DE2601200016004068
:105300007612120060200020F8B52D4C0646656923
:105310000F46E5B92946242019F098F82422294699
:1053200060611BF087FB4FF4006263691A83DA82C5
:1053300007229A76012283F821204FF4C062DD769D
:105340001D77204B1A8040F2046223F8082C1E4A75
:1053500005211368002043F48023136019F000FA3C
:1053600042F21D039F421AD13178272905D9002125
:10537000084619F0F5F93020F8BD00231A46184602
:1053800002F0D2FCA064A16CA1B90F4A08461368D0
:1053900023F48023136019F0E3F91F20F8BD42F2D3
:1053A00033039F42EFD131782729E0D8B378727860
:1053B0000120E5E7012384F84E300020F8BD00BF4E
:1053C000241F00202E27012000150040028841885C
:1053D000F8B58A42044601D91220F8BD437B072B59
:1053E000FAD8837B032BF7D8037913F0FB0F00F077
:1053F0009480981E012801D89F2AEDD96279032A4A
:10540000EAD8A279012AE7D8012B02D0B1F5804F62
:10541000E2D8434D6E69E6B93146242019F016F8FA
:105420002422314668611BF005FB4FF400626B6972
:105430001A83DA8207229A76012283F821204FF418
:10544000C062DE761E77374B1A8040F2046223F882
:10545000082C07226B691A77012283F82120217911
:105460000429B9D8DFE801F04B03495003001A774B
:1054700040F601432C4FE61D3B80A179304600F0F9
:105480008DFFA0B93B88A2799BB223F0800343EA49
:10549000C2133B80254BD4F807201B889BB203F135
:1054A000202303F580331A60B4F80B209A80237907
:1054B000042B6B6904D162881A832288DA8202E0A5
:1054C000002283F82120A2796B6904F10D0083F892
:1054D0002020224652F8071F1961928801219A82E2
:1054E0006B696279DA7700F065FF00283FF474AFEA
:1054F0006B69627B00209A76F8BD06221A771A7FC4
:10550000062A1CBF00221A771A7F062A02D00AB187
:1055100002221A77A27BDA76CDE71F2A6DE700BF59
:10552000241F00202E2701201E27012020270120D4
:10553000F8B5037807461F2B38D81D4C1D4D6669FA
:10554000DEB93146242018F081FF24223146606103
:105550001BF070FA4FF4006263691A83DA82072243
:105560009A760122DE7683F821201E774FF4C063FD
:1055700040F204622B80104B1A803A7863695A77A4
:105580004AB10E4B791C188880B200F1202000F53A
:1055900080301BF044FA62692B88527FDBB20632FE
:1055A000D2B243EA02232B800020F8BD1220F8BDBE
:1055B000241F00202E27012026270120302701202C
:1055C000F8B5037807461F2B38D81D4C1D4D66696A
:1055D000DEB93146242018F039FF242231466061BB
:1055E0001BF028FA4FF4006263691A83DA820722FB
:1055F0009A76012283F821204FF4C062DE761E776E
:10560000114B1A8040F204632B803A7863699A77D1
:105610004AB10E4B791C188880B200F1202000F5A9
:1056200080301BF0FCF962692B88927FDBB2063276
:10563000D2B243EA02232B800020F8BD1220F8BD2D
:10564000241F0020262701202E27012028270120A3
:105650008288438870B59A42044636D80178012979
:1056600033D843F6FC71043A92B28A422DD8043BF7
:105670009BB28B4229D8C379032B26D8144D95F8B9
:105680006320D20704D4012B1FD883799B071CD435
:105690002E693EB931460C2018F0D8FE286106600C
:1056A00046608660E2792B691A7262889A80A288C5
:1056B000DA8022785A72A179012AD97203D140F690
:1056C0000342044B1A80002070BD122070BD00BF41
:1056D000241F00201E27012038B50024114DA0B240
:1056E00029460134FFF7AEF90A2CF8D100240D4DFC
:1056F000A0B229460134FFF793F90A2CF8D10A4ADF
:105700000A49138823F400531B041B0C22F8343B72
:105710008A42F6D10022064B83F8652083F8662082
:1057200038BD00BF90121200A4250120DC26012004
:10573000241F002038B50D4604460A4800F0F6FD47
:1057400045B1012D0AD0084A92F86630013382F83B
:10575000663038BD2146FFF763F9F4E72146FFF7CD
:1057600071F9F0E790121200241F002010B50C46CA
:1057700000F0DCFD09280AD8012C074908D1FFF701
:1057800061F9064A92F86630013B82F8663010BD36
:10579000FFF746F9F5E700BF90121200241F002022
:1057A00001297FB506460D4630D8002200F0AAFE3A
:1057B000024658BB174C94F86530092B28D8009046
:1057C00002232946304600F069FE0B2803D0294603
:1057D0003046FFF7AFFF94F865300DF10F0201334B
:1057E0002946304684F8653000F0CAFE58B13422AC
:1057F0009DF80F3008495A43535A9BB223F4005383
:1058000043F400535352002004B070BD1220FBE754
:105810000720F9E7241F0020A425012030B5012925
:1058200085B005460C4602D9122005B030BD0DF1F9
:105830000F0200F067FE0028F6D09DF80F3003B38A
:105840000022012300922146284600F027FE0DF198
:105850000E022146284600F093FE50B134229DF8F6
:105860000E300A495A43535A23F400531B041B0CAD
:105870005352074A002092F86530013B82F86530A8
:10588000D3E721462846FFF771FFE0E7A425012072
:10589000241F002030B48378C278417843EA022282
:1058A0000378224C43EA012343EA0243204A00F1F1
:1058B000200513608379C279417943EA0222037992
:1058C00043EA012343EA02431A4A1360837AC27A05
:1058D000417A43EA0222037A43EA012343EA02437C
:1058E000154A1360837BC27B417B43EA0222037B20
:1058F00043EA012343EA0243104A136000F1100314
:10590000224618685968083303C2AB421446F7D1DF
:1059100030BC4FF4E8720A4B10201A600123094A88
:105920001360094A82F84C30FCF7E6BAD021012016
:10593000E4150040E8150040EC150040F01500406B
:10594000F4150040E0150040241F0020F8B5304C4D
:10595000012018F003FD94F8C860002E48D12046BD
:1059600019F002F90546002851D00189294FCBB220
:10597000012B4FF0110324D042F21702314640F6BA
:10598000010018F019FE0646DFF88CE0421C734651
:1059900003CBBB42106051609E4602F10802F6D173
:1059A000002330463370FEF7EBFE284618F03CFE2D
:1059B00025683DB3FCF7A8FBF0B9012384F8C83093
:1059C000F8BD3246052018F0F7FD0646DFF848E03E
:1059D000421C734603CBBB42106051609E4602F1ED
:1059E0000802F6D100233046337018F0FFFDDCE7E3
:1059F000002384F8C830DBE705F10C00BDE8F8406F
:105A0000FFF748BF1020FCF789FA84F84C50F8BD26
:105A1000241F0020F0210120E0210120044B054932
:105A20001A88C2F30E0223F8342B8B42F8D1704748
:105A3000A4250120DC260120F8B56A4C002874D189
:105A4000694918F07BFE6949012018F06DFC0021BE
:105A500000250326084618F083FE84F84E6084F87B
:105A60004D501BF0C1F84FF0FF331F27C4F8323000
:105A700084F8430084F8445084F8455084F8367024
:105A8000A564FFF729FE94F8633023F0010384F83E
:105A900063304FF46173A4F85C30FFF7BFFF294611
:105AA000092018F095FF94F8633084F8386023F0EB
:105AB000020384F86330102384F83A6084F8396074
:105AC0004B4E84F83B70E563A6F13400C6F80350F2
:105AD000A4F85E3084F8C75084F84C5084F8C8505D
